:100000000C9446070C9463070C9463070C946307E5
:100010000C9463070C9463070C9463070C946307B8
:100020000C9463070C9463070C9463070C946307A8
:100030000C9463070C9463070C9463070C94630798
:100040000C9463070C9463070C9463070C94630788
:100050000C9404120C9463070C9463070C946307CC
:100060000C9463070C9463070C9463070C94630768
:100070000C9463070C9463070C9463070000000062
:100080000000000000000000000000000000000070
:10009000000000000100000001000000010000005D
:1000A000010000000100000001000000020000004B
:1000B0000200000002000000020000000200000038
:1000C0000200000003000000030000000300000025
:1000D0000300000003000000040000000400000012
:1000E0000400000004000000040000000400000000
:1000F00005000000050000000500000005000000EC
:1001000005000000050000000600000006000000D9
:1001100006000000060000000600000006000000C7
:1001200007000000070000000700000007000000B3
:1001300007000000080000000800000008000000A0
:10014000080000000800000008000000090000008E
:10015000090000000900000009000000090000007B
:10016000090000000A0000000A0000000A00000068
:100170000A0000000A0000000A0000000B00000056
:100180000B0000000B0000000B0000000B00000043
:100190000C0000000C0000000C0000000C0000002F
:1001A0000C0000000C0000000D0000000D0000001D
:1001B0000D0000000D0000000D0000000D0000000B
:1001C0000E0000000E0000000E0000000E000000F7
:1001D0000E0000000E0000000F0000000F000000E5
:1001E0000F0000000F0000000F0000000F000000D3
:1001F00010000000100000001000000010000000BF
:1002000010000000110000001100000011000000AB
:100210001100000011000000110000001200000099
:100220001200000012000000120000001200000086
:100230001200000013000000130000001300000073
:100240001300000013000000130000001400000061
:10025000140000001400000014000000140000004E
:10026000140000001500000015000000150000003B
:100270001500000015000000150000001600000029
:100280001600000016000000160000001600000016
:100290001700000017000000170000001700000002
:1002A00017000000170000001800000018000000F0
:1002B00018000000180000001800000018000000DE
:1002C00019000000190000001900000019000000CA
:1002D00019000000190000001A0000001A000000B8
:1002E0001A0000001A0000001A0000001A000000A6
:1002F0001B0000001B0000001B0000001B00000092
:100300001B0000001B0000001C0000001C0000007F
:100310001C0000001C0000001C0000001C0000006D
:100320001D0000001D0000001D0000001D00000059
:100330001D0000001D0000001E0000001E00000047
:100340001E0000001E0000001E0000001E00000035
:100350001F0000001F0000001F0000001F00000021
:100360001F0000001F00000020000000200000000F
:1003700020000000200000002000000020000000FD
:1003800021000000210000002100000021000000E9
:1003900021000000210000002200000022000000D7
:1003A00022000000220000002200000022000000C5
:1003B00023000000230000002300000023000000B1
:1003C00023000000230000002300000024000000A0
:1003D000240000002400000024000000240000008D
:1003E000240000002500000025000000250000007A
:1003F0002500000025000000250000002600000068
:100400002600000026000000260000002600000054
:100410002600000027000000270000002700000041
:10042000270000002700000027000000280000002F
:10043000280000002800000028000000280000001C
:10044000280000002800000029000000290000000A
:1004500029000000290000002900000029000000F8
:100460002A0000002A0000002A0000002A000000E4
:100470002A0000002A0000002B0000002B000000D2
:100480002B0000002B0000002B0000002B000000C0
:100490002B0000002C0000002C0000002C000000AD
:1004A0002C0000002C0000002C0000002D0000009B
:1004B0002D0000002D0000002D0000002D00000088
:1004C0002D0000002E0000002E0000002E00000075
:1004D0002E0000002E0000002E0000002E00000064
:1004E0002F0000002F0000002F0000002F00000050
:1004F0002F0000002F00000030000000300000003E
:10050000300000003000000030000000300000002B
:100510003000000031000000310000003100000018
:100520003100000031000000310000003100000007
:1005300032000000320000003200000032000000F3
:1005400032000000320000003300000033000000E1
:1005500033000000330000003300000033000000CF
:1005600033000000340000003400000034000000BC
:1005700034000000340000003400000034000000AB
:100580003500000035000000350000003500000097
:100590003500000035000000360000003600000085
:1005A0003600000036000000360000003600000073
:1005B0003600000037000000370000003700000060
:1005C000370000003700000037000000370000004F
:1005D000380000003800000038000000380000003B
:1005E000380000003800000038000000390000002A
:1005F0003900000039000000390000003900000017
:1006000039000000390000003A0000003A00000004
:100610003A0000003A0000003A0000003A000000F2
:100620003A0000003B0000003B0000003B000000DF
:100630003B0000003B0000003B0000003B000000CE
:100640003C0000003C0000003C0000003C000000BA
:100650003C0000003C0000003C0000003D000000A9
:100660003D0000003D0000003D0000003D00000096
:100670003D0000003D0000003D0000003E00000085
:100680003E0000003E0000003E0000003E00000072
:100690003E0000003E0000003F0000003F00000060
:1006A0003F0000003F0000003F0000003F0000004E
:1006B0003F0000004000000040000000400000003B
:1006C000400000004000000040000000400000002A
:1006D0004000000041000000410000004100000017
:1006E0004100000041000000410000004100000006
:1006F00042000000420000004200000042000000F2
:1007000042000000420000004200000042000000E1
:1007100043000000430000004300000043000000CD
:1007200043000000430000004300000043000000BD
:1007300044000000440000004400000044000000A9
:100740004400000044000000440000004400000099
:100750004500000045000000450000004500000085
:100760004500000045000000450000004500000075
:100770004600000046000000460000004600000061
:100780004600000046000000460000004600000051
:10079000470000004700000047000000470000003D
:1007A000470000004700000047000000470000002D
:1007B0004800000048000000480000004800000019
:1007C0004800000048000000480000004800000009
:1007D00049000000490000004900000049000000F5
:1007E00049000000490000004900000049000000E5
:1007F000490000004A0000004A0000004A000000D2
:100800004A0000004A0000004A0000004A000000C0
:100810004A0000004B0000004B0000004B000000AD
:100820004B0000004B0000004B0000004B0000009C
:100830004B0000004B0000004C0000004C0000008A
:100840004C0000004C0000004C0000004C00000078
:100850004C0000004C0000004C0000004D00000067
:100860004D0000004D0000004D0000004D00000054
:100870004D0000004D0000004D0000004D00000044
:100880004E0000004E0000004E0000004E00000030
:100890004E0000004E0000004E0000004E00000020
:1008A0004E0000004F0000004F0000004F0000000D
:1008B0004F0000004F0000004F0000004F000000FC
:1008C0004F0000004F0000004F00000050000000EB
:1008D00050000000500000005000000050000000D8
:1008E00050000000500000005000000050000000C8
:1008F00051000000510000005100000051000000B4
:1009000051000000510000005100000051000000A3
:100910005100000051000000520000005200000091
:10092000520000005200000052000000520000007F
:10093000520000005200000052000000520000006F
:10094000530000005300000053000000530000005B
:10095000530000005300000053000000530000004B
:10096000530000005300000053000000540000003A
:100970005400000054000000540000005400000027
:100980005400000054000000540000005400000017
:100990005400000054000000550000005500000005
:1009A00055000000550000005500000055000000F3
:1009B00055000000550000005500000055000000E3
:1009C00055000000560000005600000056000000D0
:1009D00056000000560000005600000056000000BF
:1009E00056000000560000005600000056000000AF
:1009F000570000005700000057000000570000009B
:100A0000570000005700000057000000570000008A
:100A1000570000005700000057000000570000007A
:100A20005800000058000000580000005800000066
:100A30005800000058000000580000005800000056
:100A40005800000058000000580000005800000046
:100A50005900000059000000590000005900000032
:100A60005900000059000000590000005900000022
:100A70005900000059000000590000005900000012
:100A8000590000005A0000005A0000005A000000FF
:100A90005A0000005A0000005A0000005A000000EE
:100AA0005A0000005A0000005A0000005A000000DE
:100AB0005A0000005A0000005A0000005B000000CD
:100AC0005B0000005B0000005B0000005B000000BA
:100AD0005B0000005B0000005B0000005B000000AA
:100AE0005B0000005B0000005B0000005B0000009A
:100AF0005B0000005C0000005C0000005C00000087
:100B00005C0000005C0000005C0000005C00000075
:100B10005C0000005C0000005C0000005C00000065
:100B20005C0000005C0000005C0000005C00000055
:100B30005D0000005D0000005D0000005D00000041
:100B40005D0000005D0000005D0000005D00000031
:100B50005D0000005D0000005D0000005D00000021
:100B60005D0000005D0000005D0000005D00000011
:100B70005E0000005E0000005E0000005E000000FD
:100B80005E0000005E0000005E0000005E000000ED
:100B90005E0000005E0000005E0000005E000000DD
:100BA0005E0000005E0000005E0000005E000000CD
:100BB0005E0000005E0000005F0000005F000000BB
:100BC0005F0000005F0000005F0000005F000000A9
:100BD0005F0000005F0000005F0000005F00000099
:100BE0005F0000005F0000005F0000005F00000089
:100BF0005F0000005F0000005F0000005F00000079
:100C00005F00000060000000600000006000000065
:100C10006000000060000000600000006000000054
:100C20006000000060000000600000006000000044
:100C30006000000060000000600000006000000034
:100C40006000000060000000600000006000000024
:100C50006000000060000000600000006100000013
:100C60006100000061000000610000006100000000
:100C700061000000610000006100000061000000F0
:100C800061000000610000006100000061000000E0
:100C900061000000610000006100000061000000D0
:100CA00061000000610000006100000061000000C0
:100CB00061000000610000006100000061000000B0
:100CC000610000006200000062000000620000009D
:100CD000620000006200000062000000620000008C
:100CE000620000006200000062000000620000007C
:100CF000620000006200000062000000620000006C
:100D0000620000006200000062000000620000005B
:100D1000620000006200000062000000620000004B
:100D2000620000006200000062000000620000003B
:100D3000620000006200000062000000620000002B
:100D40006200000062000000630000006300000019
:100D50006300000063000000630000006300000007
:100D600063000000630000006300000063000000F7
:100D700063000000630000006300000063000000E7
:100D800063000000630000006300000063000000D7
:100D900063000000630000006300000063000000C7
:100DA00063000000630000006300000063000000B7
:100DB00063000000630000006300000063000000A7
:100DC0006300000063000000630000006300000097
:100DD0006300000063000000630000006300000087
:100DE0006300000063000000630000006300000077
:100DF0006300000063000000630000006300000067
:100E00006300000063000000630000006300000056
:100E10006300000063000000630000006300000046
:100E20006300000063000000630000006300000036
:100E30006300000063000000630000006300000026
:100E40006300000063000000630000006300000016
:100E50006300000063000000630000006300000006
:100E600063000000630000006300000063000000F6
:100E700063000000630000006300000063000000E6
:100E800063000000630000006300000011241FBE27
:100E9000CFEFD0E1DEBFCDBF11E0A0E0B1E0EEE3E7
:100EA000FCE302C005900D92A031B107D9F713E021
:100EB000A0E1B1E001C01D92A731B107E1F70E94A6
:100EC00076180C9473180C94000011B814B817B865
:100ED0001AB8209A229A559A569A549A15B81BB85D
:100EE00008959C0160E17EE00E94FD1B80EF91EF80
:100EF000689FF001699FF00D789FF00D1124E20FBB
:100F0000F31FCF0164E873E00E94FD1B8CE79CEFA8
:100F1000689F9001699F300D789F300D11242E0F2E
:100F20003F1F613039F483E893E0AC01421B530B5F
:100F30009A010CC0623041F0633041F483E893E0E1
:100F4000AC01421B530B9A01AFEF01C0A1E0F901C4
:100F5000EE0FFF1FEE0FFF1FE458FF4F2591359155
:100F600045915591BB27A7FDB0950E94E51B0895BB
:100F70008C579C4F0C9471075E9889EF90E0019715
:100F8000F1F700C000005E9A89EF90E00197F1F759
:100F900000C00000089590910001891751F09091D0
:100FA000C00095FFFCCFE9EFF0E03197F1F700C00A
:100FB0000000813011F45D9A03C0811101C05D9879
:100FC0008093000108959091C80095FFFCCF809315
:100FD000CE000895CF93C82F81E00E94CB078C2FBD
:100FE000CF910C94E307CF93C82F80E00E94CB07EA
:100FF0008C2FCF910C94E307ACECB0E011961C92CF
:101000001E92E8ECF0E0108288E08093C90083EC47
:101010008093CA0082E090E011969C938E93808129
:10102000806480830E94BC0781E20E94F30780EB0A
:101030000E94F30784E00E94F30784E10E94F30713
:1010400080E20E94F3078CE00E94F30780E40E9494
:10105000F30780E80C94F3072BE131E00EC0F901AF
:10106000E80FF91F1082019684359105C1F72C5ABB
:101070003F4F83E02331380719F080E090E0EFCF55
:1010800008950F931F93CF93DF9380E40E94F3079B
:1010900080E80E94F3070BE111E010C0F801EC0FAB
:1010A000FD1F80810E94EA072196C435D105B1F762
:1010B0000C5A1F4F83E00331180719F0C0E0D0E04D
:1010C000EDCFDF91CF911F910F9108950E942C08D1
:1010D0000C944108CF93C82F892FC435D8F490338E
:1010E000C8F468E070E090E00E94111C9B0194E558
:1010F000929FF001939FF00D1124EC0FF11DE55E1E
:10110000FE4F21E030E001C0220F8A95EAF780818E
:10111000822B8083CF910895662319F0292F982F71
:1011200001C0282F822F0E946A080895CF92DF9273
:10113000EF92FF920F931F93CF93DF93EC0103E1A4
:1011400011E0288139814A815B81F801C080D1801A
:10115000E280F3802C193D094E095F092883398309
:101160004A835B83A3E7B0E00E94DA1B24E630E009
:1011700040E050E00E94251CF80180819181A2810D
:10118000B381820F931FA41FB51F88839983AA83FD
:10119000BB83DF91CF911F910F91FF90EF90DF9074
:1011A000CF9008952F923F924F925F926F927F92CD
:1011B0008F929F92AF92BF92CF92DF92EF92FF9267
:1011C0000F931F93CF93DF93CDB7DEB768970FB61A
:1011D000F894DEBF0FBECDBF29873A874B875C8767
:1011E0006D877E878F87988B380183E1282E81E079
:1011F000382E89849A84AB84BC84F10180819181EA
:10120000A281B381881A990AAA0ABB0A07E111E0F0
:10121000F801C080D180E280F3804D855E856F85C6
:101220007889C41AD50AE60AF70AC3010E94B807EA
:10123000698B7A8B8B8B9C8BC3010E9471076D8BA2
:101240007E8B8F8B988F29893A894B895C89C7015E
:10125000B6010E94ED1B2CE93FEF4FEF5FEF0E94BC
:10126000251C29013A012D893E894F89588DC501D8
:10127000B4010E94ED1B2CE93FEF4FEF5FEF0E949E
:10128000251C420E531E641E751EF801808191813B
:10129000A281B381480E591E6A1E7B1E29893A8994
:1012A0004B895C89C501B4010E94ED1B24E630E046
:1012B00040E050E00E94251C49015A012D893E89D9
:1012C0004F89588DC701B6010E94ED1B2CE93FEFF5
:1012D0004FEF5FEF0E94251C820E931EA41EB51EC9
:1012E000F10180819181A281B381880D991DAA1D90
:1012F000BB1D89839A83AB83BC834D825E826F82E0
:101300007886282F3A814B815C81642D7E818F8184
:10131000988568960FB6F894DEBF0FBECDBFDF91FB
:10132000CF911F910F91FF90EF90DF90CF90BF90E2
:10133000AF909F908F907F906F905F904F903F9075
:101340002F9008954F925F926F927F928F929F920B
:10135000AF92BF92CF92DF92EF92FF920F931F93C3
:10136000CF93DF93CDB7DEB760970FB6F894DEBFAB
:101370000FBECDBF3C01E82D8982F92D9A82AA2D9E
:10138000AB82BB2DBC82BC2CCD82DE828E2DEF8247
:101390009F2DF88609871A872B873C874D875E87A4
:1013A0006F87788B4BA05CA082019F01AD016B2DF4
:1013B0007D2D0E94D20829833A834B835C836D8301
:1013C0007E838F839887CE0101960E949608298597
:1013D0003A854B855C856D857E858F8598890E94D1
:1013E000D20829873A874B875C876D877E878F87EE
:1013F000988BCE0109960E94960880E1FE013196F5
:10140000D30101900D928A95E1F7C30160960FB662
:10141000F894DEBF0FBECDBFDF91CF911F910F912A
:10142000FF90EF90DF90CF90BF90AF909F908F9004
:101430007F906F905F904F9008955F926F927F9230
:101440008F929F92AF92BF92CF92DF92EF92FF92D4
:101450000F931F93CF93DF93CDB7DEB728970FB6C7
:10146000F894DEBF0FBECDBF4C013B016A01DC0129
:10147000FC9068E070E08F2D90E00E94C11C009706
:1014800009F449C0F60192838183F082E12CF12CAA
:10149000A12CB12C98E0592E35C0D4011196ED91B4
:1014A000FC911297EE0DFF1D830120813181428155
:1014B000538164817581868197810E94D208298336
:1014C0003A834B835C836D837E838F839887F60199
:1014D000A181B281AE0DBF1DFE013196852D019017
:1014E0000D928A95E1F7D60111968D919C911297F4
:1014F0008E0D9F1D0E949608BFEFAB1ABB0AE8E055
:10150000EE0EF11CD4018C9190E0A816B9062CF2D5
:1015100021E030E002C020E030E0C90128960FB69B
:10152000F894DEBF0FBECDBFDF91CF911F910F9119
:10153000FF90EF90DF90CF90BF90AF909F908F90F3
:101540007F906F905F9008952F923F924F925F929D
:101550006F927F928F929F92AF92BF92CF92DF92C3
:10156000EF92FF920F931F93CF93DF93CDB7DEB728
:101570006E970FB6F894DEBF0FBECDBF9C8F8B8FDA
:101580007E836D8364E170E0DC018C9190E00E94C9
:10159000C11C009709F410C2ED81FE819283818302
:1015A0001082212C312CFFC1AB8DBC8D11968D91F9
:1015B0009C911297E32DF0E0DC0108E0309EA00D35
:1015C000B11D1124CD90DD90ED90FC9013971496F1
:1015D0004D905D906D907C901797311019C0AC01C3
:1015E00018E0219F400D511D112448505109DA0186
:1015F0008D909D90AD90BC90139714960D911D9178
:101600002D913C91179709831A832B833C8317C034
:101610009F012150310943E0220F331F4A95E1F722
:10162000280F391FF90180809180A280B3808481C6
:101630009581A681B78189839A83AB83BC83098115
:101640001A812B813C810415150526053705B4F454
:10165000342D252D962D872D49805A806B807C80D6
:1016600039832A839B838C833C2D2D2D9E2D8F2D9A
:1016700075016401832E922EA92EB82E09811A813C
:101680002B813C8104191509260937090F87188B0E
:10169000298B3A8BC901B8010E94C11520E030E0C6
:1016A00048EC52E40E94EF148B018E8F9D8F20E056
:1016B00030E0A901712F0E94921520E030E040E057
:1016C0005FE3FE8DED8D602F712F87FD05C08F2F9D
:1016D0009E2F0E94AE1304C08F2F9E2F0E94DA13FC
:1016E0000E942F1261112EC02F813885232B09F4FF
:1016F00059C10F81188529853A85C016D106E206A1
:10170000F30609F424C10B851C852D853E85C01682
:10171000D106E206F30609F427C10F811885298551
:101720003A8580169106A206B30609F42AC10B85F4
:101730001C852D853E8580169106A206B30609F00C
:1017400031C128C1C501B4016C197D098E099F09F9
:101750000E94C11520E030E048EC52E40E940A14D7
:101760000E941D162F85388949895A890E94251C97
:101770002F87388B498B5A8BC501B4010E94C11544
:1017800020E030E048EC52E40E94EF148B018E8F91
:101790009D8F20E030E0A901712F0E94921520E07A
:1017A00030E040E05FE3FE8DED8D602F712F87FD0F
:1017B00005C08F2F9E2F0E94AE1304C08F2F9E2F27
:1017C0000E94DA130E942F126D8F0B851C852D85C8
:1017D0003E85C016D106E206F30649F40B891C8942
:1017E0002D893E894016510662067306B1F00F81BD
:1017F000188529853A8580169106A206B30681F4DC
:1018000009811A812B813C818F89988DA98DBA8D90
:10181000081719072A073B0719F491E09219292E96
:10182000ED81FE81A08118861F8290E039C0ED8194
:10183000FE81218132810F811885200F311FF9012E
:101840004081518162817381441655066606770690
:101850005CF14415550566057705D9F44085518539
:1018600062857385C416D506E606F706ECF04C15BE
:101870005D056E057F0569F4468557856089718928
:101880000F85188929893A8904171507260737070C
:101890005CF09F5F2F8138852C5E3F4F38872F8308
:1018A0009A13C5CF4A2F01C0492F5A2F18C0DC0107
:1018B00034E1539FA00DB11D1124252F30E021509C
:1018C000310964E1629FF001639FF00D1124E80F7C
:1018D000F91F84E101900D928A95E1F75150AD8195
:1018E000BE8111968D919C911297451700F3FC01D2
:1018F000B4E14B9FE00DF11D1124408251826282C0
:10190000738209811A812B813C810483158326838C
:101910003783C086D186E286F3861D8D148725869F
:101920000F85188929893A8906871787208B318B7B
:10193000138A128AAD81BE818C918F5F8C934B8A02
:101940005C8A6D8A7E8ACB86DC86ED86FE8609817E
:101950001A812B813C810F8B188F298F3A8F8F82B0
:101960009886A986BA861EC009811A812B813C817E
:101970000B8B1C8B2D8B3E8B8B869C86AD86BE86FF
:1019800011C04F8A588E698E7A8ECF82D886E986AA
:10199000FA8608C04B8A5C8A6D8A7E8ACB86DC8692
:1019A000ED86FE863394AB8DBC8D2C91321608F4F7
:1019B000FBCD21E030E002C020E030E0C9016E96AE
:1019C0000FB6F894DEBF0FBECDBFDF91CF911F9150
:1019D0000F91FF90EF90DF90CF90BF90AF909F90CE
:1019E0008F907F906F905F904F903F902F900895D1
:1019F0002F923F924F925F926F927F928F929F921F
:101A0000AF92BF92CF92DF92EF92FF920F931F930C
:101A1000CF93DF93CDB7DEB7A0970FB6F894DEBFB4
:101A20000FBECDBF1C01DC011196ED91FC91129708
:101A300060817181828193810E94C11520E030E034
:101A400048EC52E40E94EF147B018C0120E030E06E
:101A5000A9017F2D912F0E94921520E030E040E0F7
:101A60005FE36E2D7F2D87FD09C0802F912F0E948F
:101A7000AE130E942F126A8F00E005C0802F912FB5
:101A80000E94DA13F6CF10E0BA8D8B2E992487FCD2
:101A90009094A92CB92C58C1F10161807280F4E1B5
:101AA0001F9F600C711C1124D30152968D919C9143
:101AB00053978130910509F0B2C0C501B4010E946D
:101AC000C11520E030E048EC52E40E940A140E9464
:101AD0001D166253710981099109F301C480D580F3
:101AE000E680F780C616D706E806F90634F422E049
:101AF00030E0338B228B015026C1C684D784E08826
:101B0000F18860857185828593856C0D7D1D8E1DA4
:101B10009F1DF30160877187828793871C141D04C2
:101B20001E041F047CF50E94C11520E030E048EC43
:101B300052E40E94EF146B017C0120E030E0A90127
:101B40007D2D9F2D0E94921520E030E040E05FE364
:101B50006C2D7D2D87FD05C08E2D9F2D0E94AE130F
:101B600004C08E2D9F2D0E94DA130E942F1270E068
:101B7000D3011C968C91992787FD9095861797071E
:101B8000B4F1E1C0CD28CE28CF2809F4DCC00E94F2
:101B9000C11520E030E048EC52E40E94EF146D8B58
:101BA0007E8B2C0120E030E0A901952D0E9492153A
:101BB00020E030E040E05FE3BD89AE896B2F7A2FF3
:101BC00087FD05C0842D952D0E94AE1304C0842D81
:101BD000952D0E94DA130E942F1270E0F301848584
:101BE000992787FD9095681779070CF0ACC0D30151
:101BF0001C966C91772767FD7095872F972F0E9411
:101C0000C11520E030E048EC52E40E940A140E9422
:101C10001D16F301608771878287938794C0892B93
:101C200009F091C0C501B4010E94C11520E030E067
:101C300048EC52E40E940A140E941D166F5C7F4F0C
:101C40008F4F9F4FD301CD90DD90ED90FC90139777
:101C50006C157D058E059F050CF475C0E1E0F0E084
:101C60005396FC93EE9352970F5F612E712E7A94E8
:101C7000372D44E134029001112438A32F8F80E0E6
:101C800090E05FC0D1011196ED91FC9112972F8DDC
:101C900038A1280F391F398F288F2E0F3F1FD901E8
:101CA00052964D915C9153974130510509F047C0D0
:101CB000B62D44E1B40220011124E40DF51DC084C9
:101CC000D184E284F384D90118964D915D916D9190
:101CD0007C911B97C416D506E606F70684F5149684
:101CE000CD90DD90ED90FC901797408151816281FD
:101CF0007381C416D506E606F70609F1DE011196D2
:101D000044E101900D924A95E1F7F101A181B28180
:101D1000A40DB51DF90124E101900D922A95E1F77A
:101D2000F101A181B281288D398DA20FB31FFE016F
:101D3000319624E101900D922A95E1F7672C7A946F
:101D4000449777FE9FCF1F5FD1018C91181708F43D
:101D5000A3CE002309F492C0B12C22E031E085C06B
:101D6000B4E1BB9E40011124D1011196ED91FC918B
:101D70001297E80DF91D82899389019709F074C0C3
:101D80008585223011F421E0281B821709F464C0F4
:101D9000313051F420853185428553852B8F3C8F1E
:101DA0004D8F5E8F30E058C06B8D7C8D8D8D9E8DFC
:101DB0000E94C11520E030E048EC52E40E94EF148C
:101DC0006D8B7E8B888FA92E20E030E0A9010E94C8
:101DD000921520E030E040E05FE3BD89AE89F88DE8
:101DE0006B2F7A2F87FD05C08F2F9A2D0E94AE137F
:101DF00004C08F2F9A2D0E94DA130E942F12F62E04
:101E000005C08F2D9A8D0E946A08FE2CEF2CE3945A
:101E10006F2D70E080E090E00E946C1620E030E0D2
:101E200048EC52E40E940A140E941D16D10111963A
:101E3000ED91FC911297E80DF91D40845184628464
:101E40007384B2E34B0E511C611C711C461657067D
:101E500068067906B4F631E0D1011196ED91FC9156
:101E60001297E80DF91D2585B394F1018081B8160C
:101E700008F476CFFA8DFF5FFA8F05CEA0960FB6E5
:101E8000F894DEBF0FBECDBFDF91CF911F910F91B0
:101E9000FF90EF90DF90CF90BF90AF909F908F908A
:101EA0007F906F905F904F903F902F9008952F926A
:101EB0003F924F925F926F927F928F929F92AF92DA
:101EC000BF92CF92DF92EF92FF920F931F93CF9327
:101ED000DF93CDB7DEB76A970FB6F894DEBF0FBEBB
:101EE000CDBF29833A834B835C836D837E838F834D
:101EF0009887A986BA86CB86DC86ED86FE860F8714
:101F0000188B8A8EC980DA80EB80FC802D813E811F
:101F10004F815885298B3A8B4B8B5C8B29843A8473
:101F20004B845C844D855E856F8578894D8B5E8B97
:101F30006F8B788FCB01BA0129893A894B895C89EB
:101F4000621B730B840B950B0E94C11520E030E0DF
:101F500048EC52E40E940A140E941D16A20191014D
:101F60002C193D094E095F090E94251C49015A019F
:101F70002C143D044E045F0414F5B094A094909486
:101F80008094811C911CA11CB11C3D892E899F89C4
:101F9000888D49895A896B897C894D8B5E8B6F8BC3
:101FA000788F398B2A8B9B8B8C8B322D232D942D04
:101FB000852D16012701C32ED22EE92EF82EC7013A
:101FC000B6010E94C11520E030E048EC52E40E94C6
:101FD000EF143B018C0120E030E0A901772D912F17
:101FE0000E94921520E030E040E05FE3662D772DFF
:101FF00087FD05C0802F912F0E94AE1304C0802F53
:10200000912F0E94DA130E942F12062F70E080E0B9
:1020100090E00E946C1620E030E048EC52E40E9410
:102020000A140E941D166C197D098E099F09A501CD
:1020300094010E94ED1B24E630E040E050E00E9455
:10204000251C69017A0169897A898B899C89C60E68
:10205000D71EE81EF91EC701B6010E94C11520E077
:1020600030E048EC52E40E94EF14698F672E782E1E
:10207000192F20E030E0A9010E94921520E030E005
:1020800040E05FE3B98D6B2F762D87FD05C0872D6E
:10209000912F0E94AE1304C0872D912F0E94DA1356
:1020A0000E942F12162F70E080E090E00E946C16C4
:1020B00020E030E048EC52E40E940A140E941D1611
:1020C000C61AD70AE80AF90A6A8DC8010E948C0864
:1020D0008D899E89AF89B88D29893A894B895C8918
:1020E00082179307A407B5076CF4F094E094D0949A
:1020F000C094C11CD11CE11CF11C4FEF5FEF5A8B47
:10210000498B24C061E070E07A8B698B1FC00F5F40
:10211000D501C401B7FE04C08D899E89AF89B88DF1
:10212000C80ED91EEA1EFB1E73E3C716D104E104D4
:10213000F1043CF08989180F94E6C91AD108E10826
:10214000F1086A8DC8010E948C0812C03201210179
:10215000A2E34A1A51086108710822273327A9010E
:10216000281939094A095B092D8B3E8B4F8B588FF3
:10217000602F70E080E090E00E946C1620E030E07C
:1021800048EC52E40E940A140E941D16641575055D
:10219000860597050CF4BBCF6A960FB6F894DEBFA0
:1021A0000FBECDBFDF91CF911F910F91FF90EF90A8
:1021B000DF90CF90BF90AF909F908F907F906F9067
:1021C0005F904F903F902F9008954F925F926F9243
:1021D0007F928F929F92AF92BF92CF92DF92EF92B7
:1021E000FF920F931F93CF93DF93CDB7DEB7A097E6
:1021F0000FB6F894DEBF0FBECDBF298B3A8B4B8B49
:102200005C8B6D8B7E8B8F8B988FA98EBA8ECB8ECD
:10221000DC8EED8EFE8E0F8F18A389889A88AB888E
:10222000BC884D885E886F88788C098D1A8D2B8DBF
:102230003C8DCD8CDE8CEF8CF8A0B901A80148193B
:1022400059096A097B0977FF07C070956095509519
:1022500041955F4F6F4F7F4FD701C6018419950994
:10226000A609B709B7FF07C0B095A09590958195CD
:102270009F4FAF4FBF4F481759076A077B0794F02E
:10228000812CA98CBA8CCB8CDC8CED8CFE8C0F8DC8
:1022900018A129893A894B895C896D897E898F8942
:1022A000988D22C049865A866B867C86682D8D86DD
:1022B0009E86AF86B88AAC2CC982DA82EB82FC8219
:1022C000E02E0D831E832F83388788248394BA8061
:1022D000CB80DC80FE800F811885242D3A854B85CC
:1022E0005C857E858F8598890E94570FA0960FB6D2
:1022F000F894DEBF0FBECDBFDF91CF911F910F913C
:10230000FF90EF90DF90CF90BF90AF909F908F9015
:102310007F906F905F904F9008956F927F928F9211
:102320009F92AF92BF92CF92DF92EF92FF920F9364
:102330001F93CF93DF93CDB7DEB760970FB6F894B6
:10234000DEBF0FBECDBF35014601BE2DAF2DF02F34
:10235000E12F59016A017B018C019301A4016B2FCC
:102360007A2F8F2F9E2F0E94E51060960FB6F8945B
:10237000DEBF0FBECDBFDF91CF911F910F91FF90B8
:10238000EF90DF90CF90BF90AF909F908F907F9015
:102390006F900895109212011092110183E390E062
:1023A0009093C5008093C400E0ECF0E0108288E9CF
:1023B0008093C1008EE08093C2008081806480831E
:1023C0008091C60008959091C00095FFFCCF809346
:1023D000C600089585B194E0892785B9109212014D
:1023E0001092110183E10E94E31182E080931001B9
:1023F000809110018111FCCF08958091C00087FF6A
:10240000FCCF8091C60008951F920F920FB60F92D5
:1024100011242F938F939F932091C60080911001D8
:10242000823019F4922F80E009C080911001813030
:1024300071F48091110190911201822B90931201FD
:1024400080931101809110018150809310019F9120
:102450008F912F910F900FBE0F901F901895CF92D4
:10246000DF92EF92FF920F931F936B017C0120E0AC
:1024700030E040E05FE40E94921587FD0EC020E04E
:1024800030E040E05FE4C701B6010E94DA130E9429
:102490001D168B019C01305806C0C701B6010E9471
:1024A0001D168B019C01B801C9011F910F91FF906E
:1024B000EF90DF90CF900895A0E0B0E0E2E6F2E187
:1024C0000C94731C3C01CB01EA01D3012C91223006
:1024D00008F43EC1FB013081323008F436C12430AB
:1024E00071F4343009F034C111962C918181281790
:1024F00009F42EC1B7E06B2EB1E07B2E29C1343038
:1025000009F423C1323091F4223009F021C128E0CE
:10251000F301DA0101900D922A95E1F7DB011196A2
:102520008C91F30191818923898311C1223009F4AF
:102530000CC1D3011296ED91FC911397DB01129619
:102540006D917C911397D30114960D911D912D914E
:102550003C911797DC011496CD90DD90ED90FC90A6
:102560001797AF01461B570BDA0157FF04C0AA2784
:10257000BB27A41BB50BA032B1050CF065C0141627
:1025800015067CF5B701A6010A2E04C0769567955D
:10259000579547950A94D2F7812C912C5401839436
:1025A00004C0880C991CAA1CBB1CAA95D2F7B1E0E8
:1025B0008B1A9108A108B1088C209D20AE20BF2065
:1025C000C12CD12C7601C39481149104A104B104CF
:1025D00019F4C12CD12C7601C42AD52AE62AF72A6F
:1025E0003EC0452BE1F1EA0FFB1FB901A8010A2EFD
:1025F00004C076956795579547950A94D2F7812C34
:10260000912C5401839404C0880C991CAA1CBB1CF7
:10261000AA95D2F7A1E08A1A9108A108B1088022F0
:102620009122A222B32201E010E020E030E08114E8
:102630009104A104B10419F400E010E09801042B06
:10264000152B262B372B0BC06E177F0724F4C12CBC
:10265000D12C760104C0FB0100E010E09801D30109
:1026600011964C91DC0111968C91481709F442C0E7
:10267000442349F0D701C601801B910BA20BB30B79
:102680008C019D0104C00C191D092E093F0937FD5D
:1026900004C01982FB83EA830BC081E08983FB833A
:1026A000EA8330952095109501951F4F2F4F3F4F8E
:1026B0000C831D832E833F830DC0880F991FAA1F93
:1026C000BB1F8C839D83AE83BF838A819B810197CF
:1026D0009B838A838C819D81AE81BF818C019D010A
:1026E00001501109210931090F3F1F4F2F4F3F435F
:1026F00020F30BC04983FB83EA830C0D1D1D2E1DA7
:102700003F1D0C831D832E833F8383E088830C81D0
:102710001D812E813F8137FF1AC0D901C801817008
:102720009927AA27BB273695279517950795802BBC
:10273000912BA22BB32B8C839D83AE83BF838A8185
:102740009B8101969B838A8302C03C0101C03E01AC
:10275000C301CDB7DEB7EEE00C948F1CA0E2B0E071
:10276000E4EBF3E10C947F1C6D8F7E8F8F8F98A329
:10277000298F3A8F4B8F5C8FBE016F5E7F4FCE01EA
:102780004D960E94A317BE01675F7F4FCE01499609
:102790000E94A317AE014F5F5F4FBE01675F7F4F7F
:1027A000CE0141960E945C120E94E216A096E2E0E1
:1027B0000C949B1CA0E2B0E0E0EEF3E10C947F1CD3
:1027C0006D8F7E8F8F8F98A3298F3A8F4B8F5C8F61
:1027D000BE016F5E7F4FCE014D960E94A317BE01D2
:1027E000675F7F4FCE0149960E94A3178A8591E0CB
:1027F00089278A87AE014F5F5F4FBE01675F7F4FBA
:10280000CE0141960E945C120E94E216A096E2E080
:102810000C949B1CA0E2B0E0E0E1F4E10C94711C8C
:102820006D8F7E8F8F8F98A3298F3A8F4B8F5C8F00
:10283000BE016F5E7F4FCE014D960E94A317BE0171
:10284000675F7F4FCE0149960E94A3179989923006
:1028500008F412C08985823008F41AC0943021F43B
:10286000823009F4B4C008C0843021F4923009F4F5
:10287000AEC00EC0923051F481E02A899A852913A6
:1028800001C080E08A8BCE014196A3C0823051F412
:1028900081E02A899A85291301C080E08A87CE01C8
:1028A000099697C08D889E88AF88B88C0D851E8547
:1028B0002F853889E0E2F0E080E090E0DC01C12C77
:1028C000D12C760140E050E0BA0180FE18C0400FE4
:1028D000511F621F731F8C0D9D1DAE1DBF1D412C0E
:1028E000512C32014394401751076207730718F0C7
:1028F000412C512C3201840D951DA61DB71DCC0C09
:10290000DD1CEE1CFF1C37FF02C06894C0F8000FEE
:10291000111F221F331FB694A79497948794319761
:10292000A1F62B893C89EB85FC852E0F3F1F2E5F7E
:102930003F4F3C832B8321E0EA893A85E31301C0B2
:1029400020E02A83EB81FC810CC080FF05C07695D6
:102950006795579547957068B695A795979587950C
:102960003196B7FDF2CF9F010CC0880F991FAA1FA7
:10297000BB1F77FD8160440F551F661F771F2150D5
:1029800031090097A105E0E4BE0778F32B833C836F
:102990008C019D010F771127222733270034110561
:1029A0002105310559F487FD09C0452B462B472BDE
:1029B00029F0805C9F4FAF4FBF4F80788D839E83FF
:1029C000AF83B88783E08983CE01019602C087E098
:1029D00091E00E94E216A096E0E10C948D1CA8E123
:1029E000B0E0E5EFF4E10C94791C6D8B7E8B8F8B5E
:1029F000988F298B3A8B4B8B5C8BBE01675F7F4F27
:102A0000CE0145960E94A317BE016F5F7F4FCE0196
:102A100041960E94A3179985923008F475C0898168
:102A2000823008F474C02A853A8123272A8794309B
:102A300011F0923019F4981367C06CC0843039F4E7
:102A40001D861E861F86188A1C861B8604C082303F
:102A500029F484E08987CE0109965EC08B859C8528
:102A60002B813C81821B930B9C878B874D855E85D8
:102A70006F857889CD80DE80EF80F8844C155D0508
:102A80006E057F0538F4440F551F661F771F0197A9
:102A90009C878B87EFE1F0E000E010E020E030E47D
:102AA00080E090E0DC014C155D056E057F0540F08F
:102AB000802B912BA22BB32B4C195D096E097F093A
:102AC0003695279517950795440F551F661F771F55
:102AD000319749F78C019D010F7711272227332762
:102AE000003411052105310559F487FD09C0452B36
:102AF000462B472B29F0805C9F4FAF4FBF4F80780C
:102B00008D879E87AF87B88BCE01099605C0CE0111
:102B1000019602C087E091E00E94E2166896E8E024
:102B20000C94951CA8E1B0E0E8E9F5E10C947F1C59
:102B30006D8B7E8B8F8B988F298B3A8B4B8B5C8B1D
:102B4000BE01675F7F4FCE0145960E94A317BE016D
:102B50006F5F7F4FCE0141960E94A3178985823017
:102B600058F08981823040F0BE016F5F7F4FCE0107
:102B700009960E94121801C08FEF6896E2E00C944B
:102B80009B1CA8E0B0E0E7ECF5E10C947D1C23E091
:102B900029838B019C01002737FD039511272227EC
:102BA0003327402F0A83611571058105910519F4BA
:102BB00082E0898335C02EE130E03C832B834423BF
:102BC00071F061157105810520E8920771F1002708
:102BD00011279801061B170B280B390B02C08B011C
:102BE0009C01C901B8010E94A61C0197181619067C
:102BF0002CF00D831E832F83388712C0082E04C04B
:102C0000000F111F221F331F0A94D2F70D831E835A
:102C10002F8338872EE130E0281B390B3C832B8330
:102C2000CE0101960E94E21604C060E070E080E0F0
:102C30009FEC2896E4E00C94991CACE0B0E0E3E251
:102C4000F6E10C947D1C69877A878B879C87BE018F
:102C50006F5F7F4FCE0109960E94A3178981823052
:102C600091F1823080F1843041F48A81882331F1FE
:102C700000E010E020E030E829C02B813C8137FDE6
:102C800022C02F3131058CF78EE190E0821B930B2F
:102C90000D811E812F81388504C0369527951795A3
:102CA00007958A95D2F78A81882381F030952095FF
:102CB000109501951F4F2F4F3F4F08C00FEF1FEF8B
:102CC0002FEF3FE703C000E010E09801B801C90111
:102CD0002C96E4E00C94991CA8E0B0E0E2E7F6E161
:102CE0000C94791C8B019C011A8261157105810578
:102CF000910519F482E089835DC083E089834EE108
:102D000050E05C834B83C901B8010E94A61C019767
:102D100097FF39C0EE27FF27E81BF90B41E050E091
:102D200060E070E00E2E04C0440F551F661F771F31
:102D30000A94D2F741505109610971094023512386
:102D400062237323C12CD12C7601C394452B462BCF
:102D5000472B19F4C12CD12C760104C03695279548
:102D600017950795EA95D2F70C291D292E293F2999
:102D70000D831E832F8338872EE130E0281B390B0B
:102D80003C832B8317C0009729F40D831E832F8368
:102D9000388710C0082E04C0000F111F221F331FD8
:102DA0000A94D2F70D831E832F833887481B590B53
:102DB0005C834B83CE0101960E94E2162896E8E0E0
:102DC0000C94951C0F931F93CF93FC014481558164
:102DD00066817781C1818081823020F460618FEFCC
:102DE00090E0A3C0843009F49BC0823009F492C003
:102DF000411551056105710509F48FC022813381A8
:102E000022388FEF38070CF057C0E2E8FFEFE21BE3
:102E1000F30BEA31F10564F58A019B010E2E04C023
:102E200036952795179507950A94D2F781E090E09B
:102E3000A0E0B0E004C0880F991FAA1FBB1FEA954D
:102E4000D2F70197A109B10984239523A623B723BB
:102E500041E050E060E070E0892B8A2B8B2B19F465
:102E600040E050E0BA01402B512B622B732B03C082
:102E700040E050E0BA01DB01CA018F779927AA2709
:102E8000BB2780349105A105B10539F447FF09C07E
:102E9000405C5F4F6F4F7F4F04C0415C5F4F6F4F8F
:102EA0007F4F81E090E041155105610520E47207F4
:102EB00048F580E090E026C0203831058CF5DB0134
:102EC000CA018F779927AA27BB2780349105A105CE
:102ED000B10539F447FF09C0405C5F4F6F4F7F4F2A
:102EE00004C0415C5F4F6F4F7F4F77FD04C0C90145
:102EF00081589F4F07C07695679557954795C901AB
:102F000080589F4F97E076956795579547959A9586
:102F1000D1F70BC080E090E005C080E090E005C0F4
:102F20008FEF90E040E050E0BA01982F9695C0FBFB
:102F300097F9362F80FB37F9642F752F832FCF91A8
:102F40001F910F910895CF92DF92EF92DC01FB0168
:102F5000CC901196DC90119712968C9112973FE7C6
:102F6000E32EE8226E2DA60170E0982F991F992775
:102F7000991F13962C91822F880F892B90E027FBA5
:102F8000222720F92183009729F541155105610574
:102F9000710511F482E027C082E89FEF938382835A
:102FA00027E0440F551F661F771F2A95D1F783E04E
:102FB000808309C0440F551F661F771F828193814C
:102FC00001979383828341155105610580E4780759
:102FD00088F320C08F3F910579F4411551056105B3
:102FE000710519F484E0808319C0E4FE03C081E018
:102FF000808310C010820EC08F5791099383828303
:1030000083E0808387E0440F551F661F771F8A95F2
:10301000D1F770644483558366837783EF90DF90A4
:10302000CF900895CF93FC01DB019081923008F49A
:1030300052C08C91823008F44EC0943071F48430C8
:1030400039F411962C9130E08181281B310948C058
:103050008181882309F43FC03BC0843029F4119654
:103060008C91811138C034C0923019F48230B9F794
:1030700035C0823069F3C18111968C911197C813C4
:103080001DC02281338112968D919C9113978217D6
:1030900093070CF413C0281739070CF417C04481A8
:1030A00055816681778114968D919D910D90BC918B
:1030B000A02D84179507A607B70718F4C11108C0FB
:1030C0000AC0481759076A077B0740F4C11103C0BB
:1030D0002FEF3FEF05C021E030E002C020E030E0FC
:1030E000C901CF910895F8940C941D1ECF93DF93DE
:1030F000CDB7DEB7CE5CD1090FB6F894DEBF0FBEF8
:10310000CDBF2FEF80E792E0215080409040E1F763
:1031100000C000000E94650786E390E1A0E0B0E0F7
:103120008093130190931401A0931501B09316019D
:103130008EE299E0A0E0B0E080931701909318012F
:10314000A0931901B0931A010E94CA110E94FC07B2
:103150008FB780688FBF0E94660870901301D0906F
:103160001401E0901501F0901601809117019091E3
:103170001801A0911901B0911A01C553DF4F88833E
:103180009983AA83BB83CB5CD0405E0191EBA90EEF
:10319000B11CD5017C921196DC9211971296EC929B
:1031A00012971396FC9213974CE552E160E070E0A1
:1031B000F501448355836683778308EF11E120E0AE
:1031C00030E018960D931D932D933C931B97C55398
:1031D000DF4F88819981AA81BB81CB5CD0408487F5
:1031E0009587A687B7872E01F1EA4F0E511CD201B1
:1031F0007C921196DC9211971296EC92129713968C
:10320000FC921397F201448355836683778344E7E6
:103210005EE060E070E018964D935D936D937C9353
:103220001B97C553DF4F88819981AA81BB81CB5CF5
:10323000D04084879587A687B7874E01F7EC8F0E1D
:10324000911C84E0D4018C93FE01EF59FF4F7082F2
:10325000D182E282F382148215821682178200875D
:10326000118722873387C553DF4F88819981AA81CF
:10327000BB81CB5CD04084879587A687B787708A4F
:10328000D18AE28AF38A08EB1BE020E030E0048B6D
:10329000158B268B378B408F518F628F738F848F66
:1032A000958FA68FB78FD4011296FC93EE9311974A
:1032B0007982DA82EB82FC8240E253E060E070E0E7
:1032C0004D835E836F837887272DC553DF4F8881B9
:1032D0009981AA81BB81CB5CD040845F9140A109D8
:1032E000B109682F8D879E87AF87B88B0CE211E0FC
:1032F0003D2DA7017E858F8598890E94D208298758
:103300003A874B875C876D877E878F87988B08E528
:1033100012E029813A814B815C816D817E818F81B0
:1033200098850E94D208298B3A8B4B8B5C8B6D8BD6
:103330007E8B8F8B988F29853A854B855C856D8533
:103340007E858F8598890E94D208298F3A8F4B8F6E
:103350005C8F6D8F7E8F8F8F98A300EB14E0298197
:103360003A814B815C816D817E818F8198850E943D
:10337000D20829A33AA34BA35CA36DA37EA38FA37A
:1033800098A729853A854B855C856D857E858F85D7
:1033900098890E94D20829A73AA74BA75CA76DA7D6
:1033A0007EA78FA798AB08E017E029813A814B816F
:1033B0005C816D817E818F8198850E94D20829ABC6
:1033C0003AAB4BAB5CAB6DAB7EAB8FAB98AF2985AB
:1033D0003A854B855C856D857E858F8598890E94B1
:1033E000D20829AF3AAF4BAF5CAF6DAF7EAF8FAFB6
:1033F00021969FAF219700E619E029813A814B8100
:103400005C816D817E818F8198850E94D208229691
:103410002FAF229723963FAF239724964FAF249741
:1034200025965FAF259726966FAF269727967FAF95
:10343000279728968FAF289729969FAF2997298598
:103440003A854B855C856D857E858F8598890E9440
:10345000D2082A962FAF2A972B963FAF2B972C9600
:103460004FAF2C972D965FAF2D972E966FAF2E975F
:103470002F967FAF2F9760968FAF609761969FAF23
:10348000619708EB1BE029813A814B815C816D815A
:103490007E818F8198850E94D20862962FAF6297B5
:1034A00063963FAF639764964FAF649765965FAF3F
:1034B000659766966FAF669767967FAF67976896D2
:1034C0008FAF689769969FAF699729853A854B8535
:1034D0005C856D857E858F8598890E94D2086A9665
:1034E0002FAF6A976B963FAF6B976C964FAF6C9709
:1034F0006D965FAF6D976E966FAF6E976F967FAF5D
:103500006F97A0968FAFA097A1969FAFA197312CF0
:103510003501282CC653DF4F9882CA5CD0400E94E8
:10352000EA110E942C0880911101909112019F9341
:103530008F93F30180809180A280B380C480D58076
:10354000E680F78000851185228533854485558581
:1035500066857785CE018F569F4F0E94A209CF5670
:10356000DF4FA880C159D040CE56DF4FB880C25936
:10357000D040CD56DF4FC880C359D040CC56DF4F26
:10358000D880C459D040CB56DF4FE880C559D040D1
:10359000CA56DF4FF880C659D040C956DF4F088160
:1035A000C759D040C856DF4F1881C859D040C756B8
:1035B000DF4F2881C959D040C656DF4F3881CA59DC
:1035C000D040C556DF4F4881CB59D040C456DF4F5D
:1035D0005881CC59D040C356DF4F6881CD59D04077
:1035E000C256DF4F7881CE59D040C156DF4F888117
:1035F000CF59D040C056DF4F9881C05AD0400E946A
:103600008D116091110170911201AE014C535F4F09
:10361000822DC653DF4F9881CA5CD0400E941D0A9C
:103620000F900F90892B09F4B9C0BE016F537F4FE3
:10363000CE018C539F4F0E94A40A892B09F4A0C08D
:10364000CE018F539F4F0E94F80CCE53DF4F8881DD
:103650009981C25CD0400E947A1DCE53DF4F1982FF
:103660001882C25CD04020911101309112013F9329
:103670002F93D2018C9011969C9011971296AC903A
:1036800012971396BC9013971496CC901497159696
:10369000DC9015971696EC9016971796FC90179756
:1036A00018960C91189719961C9119971A962C91A7
:1036B0001A971B963C911B971C964C911C971D9634
:1036C0005C911D971E966C911E971F967C91CE0162
:1036D0008F579F4F0E94A209CF57DF4FA880C15834
:1036E000D040CE57DF4FB880C258D040CD57DF4FC3
:1036F000C880C358D040CC57DF4FD880C458D04082
:10370000CB57DF4FE880C558D040CA57DF4FF8800D
:10371000C658D040C957DF4F0881C758D040C85756
:10372000DF4F1881C858D040C757DF4F2881C9588C
:10373000D040C657DF4F3881CA58D040C557DF4FF9
:103740004881CB58D040C457DF4F5881CC58D04027
:10375000C357DF4F6881CD58D040C257DF4F7881C3
:10376000CE58D040C157DF4F8881CF58D040C05786
:10377000DF4F9881C059D0400E948D110F900F905B
:10378000CB53DF4F88819981C55CD0400E947A1D60
:10379000CB53DF4F19821882C55CD040132D1F5FB9
:1037A000B2E33B1203C00E94FC0710E00E944108F4
:1037B000312EB5CE0E94411CA59F900DB49F900D57
:1037C000A49F800D911D11240895B7FF0C94DA1B5E
:1037D0000E94DA1B821B930B0895DB018F939F934A
:1037E0000E94DA1BBF91AF91A29F800D911DA39FF4
:1037F000900DB29F900D11240895AA1BBB1B51E19F
:1038000007C0AA1FBB1FA617B70710F0A61BB70B50
:10381000881F991F5A95A9F780959095BC01CD01F5
:10382000089597FB072E16F4009407D077FD09D072
:103830000E94FD1B07FC05D03EF4909581959F4F9B
:103840000895709561957F4F0895052E97FB16F4A6
:10385000009407D057FD0DD00E944D1C07FC09D0E5
:103860007EF490958095709561957F4F8F4F9F4F17
:10387000089550954095309521953F4F4F4F5F4F9C
:103880000895A29FB001B39FC001A39F01D0B29F32
:10389000700D811D1124911D0895A1E21A2EAA1BFD
:1038A000BB1BFD010DC0AA1FBB1FEE1FFF1FA217F0
:1038B000B307E407F50720F0A21BB30BE40BF50BED
:1038C000661F771F881F991F1A9469F76095709576
:1038D000809590959B01AC01BD01CF0108952F9279
:1038E0003F924F925F926F927F928F929F92AF9290
:1038F000BF92CF92DF92EF92FF920F931F93CF93DD
:10390000DF93CDB7DEB7CA1BDB0B0FB6F894DEBF73
:103910000FBECDBF09942A88398848885F846E8499
:103920007D848C849B84AA84B984C884DF80EE80E3
:10393000FD800C811B81AA81B981CE0FD11D0FB6EC
:10394000F894DEBF0FBECDBFED0108950E94AF1CFD
:1039500084FF0895CB010E94AF1C805F0895AA27C1
:10396000992329F4A85F982B11F480E108959031F0
:1039700018F4AD5F9295A395990FE8F78A2F9927D0
:1039800008950F931F93CF93DF93689F8001699FE2
:10399000100D789F100D1124C8010E94DF1CC82F44
:1039A000D92F209731F0A80160E070E08C2F0E94A1
:1039B000161ECE01DF91CF911F910F9108950F93A5
:1039C0001F93CF93DF938230910510F482E090E053
:1039D000E0911503F091160320E030E0C0E0D0E064
:1039E00023C04081518148175907A8F0481759074B
:1039F00061F482819381209719F09B838A832EC082
:103A0000909316038093150329C02115310529F0E1
:103A10004217530710F0A90102C0BE01DF01028165
:103A20001381EF019A01F8013097D9F6211531057C
:103A300009F1281B390B2430310590F412968D9131
:103A40009C9113976115710521F0FB01938382838B
:103A500004C09093160380931503FD01329644C071
:103A6000FD01E20FF31F81939193225031092D93B1
:103A70003C933AC02091130330911403232B41F45B
:103A80002091030130910401309314032093130318
:103A900020910101309102012115310541F42DB72A
:103AA0003EB74091050150910601241B350BE09172
:103AB0001303F0911403E217F307A0F42E1B3F0B3E
:103AC0002817390778F0AC014E5F5F4F2417350790
:103AD00048F04E0F5F1F50931403409313038193DC
:103AE000919302C0E0E0F0E0CF01DF91CF911F9110
:103AF0000F910895EF92FF920F931F93CF93DF934F
:103B0000009709F48EC0DC01129713961C921E9246
:103B10001297E0901503F0901603E114F10489F474
:103B20002D913C911197280F391F8091130390918B
:103B300014038217930789F5B0931403A09313031A
:103B400070C0E70120E030E001C0EA01CA17DB07DE
:103B500038F44A815B819E0141155105B1F722C0BD
:103B6000AC0142505109FA01D383C2830081118113
:103B7000BC01600F711F6C177D0761F4688179814A
:103B8000600F711F6E5F7F4F718360836A817B81DD
:103B9000738362832115310529F4B0931603A09332
:103BA00015033FC0F901B383A283E90149915991FB
:103BB000C40FD51FAC17BD0771F4DC019E918E9127
:103BC000840F951F02969183808312968D919C910C
:103BD000139793838283A0E0B0E002C0D7017C01F9
:103BE000F701828193810097C9F7C701029620816E
:103BF0003181820F931F20911303309114032817F2
:103C0000390779F4109729F41092160310921503CE
:103C100004C013961C921E921297F0921403E09225
:103C20001303CDB7DEB7E6E00C94971CDC0101C0AE
:0E3C30006D9341505040E0F70895F894FFCF97
:103C3E00010000170320000000000000000000003B
:00000001FF
